
lab2.elf:     file format elf32-avr

Sections:
Idx Name          Size      VMA       LMA       File off  Algn
  0 .text         00000094  00000000  00000000  00000054  2**1
                  CONTENTS, ALLOC, LOAD, READONLY, CODE
  1 .data         00000000  00800060  00800060  000000e8  2**0
                  CONTENTS, ALLOC, LOAD, DATA
  2 .comment      00000030  00000000  00000000  000000e8  2**0
                  CONTENTS, READONLY
  3 .note.gnu.avr.deviceinfo 0000003c  00000000  00000000  00000118  2**2
                  CONTENTS, READONLY
  4 .debug_aranges 00000030  00000000  00000000  00000154  2**0
                  CONTENTS, READONLY, DEBUGGING
  5 .debug_info   0000067a  00000000  00000000  00000184  2**0
                  CONTENTS, READONLY, DEBUGGING
  6 .debug_abbrev 000005e4  00000000  00000000  000007fe  2**0
                  CONTENTS, READONLY, DEBUGGING
  7 .debug_line   0000027e  00000000  00000000  00000de2  2**0
                  CONTENTS, READONLY, DEBUGGING
  8 .debug_frame  00000044  00000000  00000000  00001060  2**2
                  CONTENTS, READONLY, DEBUGGING
  9 .debug_str    00000301  00000000  00000000  000010a4  2**0
                  CONTENTS, READONLY, DEBUGGING
 10 .debug_loc    00000048  00000000  00000000  000013a5  2**0
                  CONTENTS, READONLY, DEBUGGING
 11 .debug_ranges 00000038  00000000  00000000  000013ed  2**0
                  CONTENTS, READONLY, DEBUGGING

Disassembly of section .text:

00000000 <__vectors>:
   0:	0c 94 2a 00 	jmp	0x54	; 0x54 <__ctors_end>
   4:	0c 94 34 00 	jmp	0x68	; 0x68 <__bad_interrupt>
   8:	0c 94 34 00 	jmp	0x68	; 0x68 <__bad_interrupt>
   c:	0c 94 34 00 	jmp	0x68	; 0x68 <__bad_interrupt>
  10:	0c 94 34 00 	jmp	0x68	; 0x68 <__bad_interrupt>
  14:	0c 94 34 00 	jmp	0x68	; 0x68 <__bad_interrupt>
  18:	0c 94 34 00 	jmp	0x68	; 0x68 <__bad_interrupt>
  1c:	0c 94 34 00 	jmp	0x68	; 0x68 <__bad_interrupt>
  20:	0c 94 34 00 	jmp	0x68	; 0x68 <__bad_interrupt>
  24:	0c 94 34 00 	jmp	0x68	; 0x68 <__bad_interrupt>
  28:	0c 94 34 00 	jmp	0x68	; 0x68 <__bad_interrupt>
  2c:	0c 94 34 00 	jmp	0x68	; 0x68 <__bad_interrupt>
  30:	0c 94 34 00 	jmp	0x68	; 0x68 <__bad_interrupt>
  34:	0c 94 34 00 	jmp	0x68	; 0x68 <__bad_interrupt>
  38:	0c 94 34 00 	jmp	0x68	; 0x68 <__bad_interrupt>
  3c:	0c 94 34 00 	jmp	0x68	; 0x68 <__bad_interrupt>
  40:	0c 94 34 00 	jmp	0x68	; 0x68 <__bad_interrupt>
  44:	0c 94 34 00 	jmp	0x68	; 0x68 <__bad_interrupt>
  48:	0c 94 34 00 	jmp	0x68	; 0x68 <__bad_interrupt>
  4c:	0c 94 34 00 	jmp	0x68	; 0x68 <__bad_interrupt>
  50:	0c 94 34 00 	jmp	0x68	; 0x68 <__bad_interrupt>

00000054 <__ctors_end>:
  54:	11 24       	eor	r1, r1
  56:	1f be       	out	0x3f, r1	; 63
  58:	cf e5       	ldi	r28, 0x5F	; 95
  5a:	d4 e0       	ldi	r29, 0x04	; 4
  5c:	de bf       	out	0x3e, r29	; 62
  5e:	cd bf       	out	0x3d, r28	; 61
  60:	0e 94 3b 00 	call	0x76	; 0x76 <main>
  64:	0c 94 48 00 	jmp	0x90	; 0x90 <_exit>

00000068 <__bad_interrupt>:
  68:	0c 94 00 00 	jmp	0	; 0x0 <__vectors>

0000006c <timer0_init>:
	DDRB|=(1<<PB3);
}

void SetPWMOutput(uint8_t duty)
{
	OCR0=duty;
  6c:	83 b7       	in	r24, 0x33	; 51
  6e:	89 66       	ori	r24, 0x69	; 105
  70:	83 bf       	out	0x33, r24	; 51
  72:	bb 9a       	sbi	0x17, 3	; 23
  74:	08 95       	ret

00000076 <main>:

int main(void)
{
	uint8_t brightness=0;
	
	timer0_init();
  76:	0e 94 36 00 	call	0x6c	; 0x6c <timer0_init>
    milliseconds can be achieved.
 */
void
_delay_loop_2(uint16_t __count)
{
	__asm__ volatile (
  7a:	20 e8       	ldi	r18, 0x80	; 128
  7c:	3c e0       	ldi	r19, 0x0C	; 12
	
	while(1)
	{
		for(brightness=0;brightness<255;brightness++){
  7e:	80 e0       	ldi	r24, 0x00	; 0
	DDRB|=(1<<PB3);
}

void SetPWMOutput(uint8_t duty)
{
	OCR0=duty;
  80:	8c bf       	out	0x3c, r24	; 60
  82:	f9 01       	movw	r30, r18
  84:	31 97       	sbiw	r30, 0x01	; 1
  86:	f1 f7       	brne	.-4      	; 0x84 <main+0xe>
	
	timer0_init();
	
	while(1)
	{
		for(brightness=0;brightness<255;brightness++){
  88:	8f 5f       	subi	r24, 0xFF	; 255
  8a:	8f 3f       	cpi	r24, 0xFF	; 255
  8c:	c9 f7       	brne	.-14     	; 0x80 <main+0xa>
  8e:	f7 cf       	rjmp	.-18     	; 0x7e <main+0x8>

00000090 <_exit>:
  90:	f8 94       	cli

00000092 <__stop_program>:
  92:	ff cf       	rjmp	.-2      	; 0x92 <__stop_program>
