:100000000C942A000C9434000C9434000C943400AA
:100010000C9434000C9434000C9434000C94340090
:100020000C9434000C9434000C9434000C94340080
:100030000C9434000C9434000C9434000C94340070
:100040000C9434000C9434000C9434000C94340060
:100050000C94340011241FBECFE5D4E0DEBFCDBF29
:100060000E943B000C9448000C94000083B7896602
:1000700083BFBB9A08950E94360020E83CE080E0F0
:100080008CBFF9013197F1F78F5F8F3FC9F7F7CF39
:04009000F894FFCF12
:00000001FF
