:020000040800F2
:10000000E00400209D010008DF1F00083B150008E8
:10001000DD1F0008850200084B22000800000000D8
:1000200000000000000000000000000003200008A5
:1000300087020008000000000120000805200008D9
:10004000B7010008B7010008B7010008B7010008B0
:10005000B7010008B701000889020008B7010008CD
:10006000B7010008B7010008B7010008B701000890
:10007000B7010008B7010008B7010008B701000880
:10008000B7010008B7010008B7010008B701000870
:10009000B7010008B7010008B7010008B701000860
:1000A000B7010008B7010008B7010008B701000850
:1000B0000921000815210008B701000849150008AA
:1000C0003D150008B7010008B7010008B701000896
:1000D000B7010008B7010008B7010008B701000820
:1000E000B7010008B7010008B7010008B701000810
:1000F000B7010008B7010008B7010008B701000800
:10010000B7010008B7010008B7010008B7010008EF
:10011000B7010008B7010008B7010008B7010008DF
:10012000B7010008B7010008B7010008B7010008CF
:10013000B7010008B7010008B7010008B7010008BF
:10014000B7010008B7010008B7010008B7010008AF
:10015000B7010008B7010008B7010008B70100089F
:10016000B7010008B7010008B7010008B70100088F
:10017000B7010008B7010008B7010008000000003F
:10018000B7010008B7010008DFF80CD000F068F8EC
:10019000004800476D220008E00400200648804720
:1001A00006480047FEE7FEE7FEE7FEE7FEE7FEE75C
:1001B000FEE7FEE7FEE7FEE7B5200008890100083C
:1001C0002DE9F05F0546002092469B46884606468C
:1001D000814640241BE0284641464746224600F01F
:1001E0002FF853465A46C01A914110D3114618466B
:1001F000224600F016F82D1A67EB01084F462246FA
:100200000120002100F00DF817EB00094E41201EDF
:10021000A4F10104DFDC484631462A464346BDE8E6
:10022000F09F202A04DB203A00FA02F100207047F8
:100230009140C2F1200320FA03F319439040704724
:10024000202A04DB203A21FA02F00021704721FA2B
:1002500002F3D040C2F12002914008431946704792
:10026000064C074D06E0E06840F0010394E8070003
:1002700098471034AC42F6D3FFF78AFF54230008A6
:1002800074230008FEE77047012000F013B890F8CF
:100290003510022903D080214165012070470521D6
:1002A00080F835100068016821F00101016000202C
:1002B00070477047044910B50A68024202D00860CE
:1002C000FFF7F7FF10BD0000143C01402DE9F84F87
:1002D000DFF87CB100224FF001084FF0030A4FF025
:1002E0000F090BF1040E00BF0B6808FA02F423405B
:1002F000A3426ED14D68022D01D0122D0ED1D5082A
:1003000000EB850CDCF820505607F70E09FA07F6CB
:10031000B5430E69BE402E43CCF8206006685500F8
:100320000F790AFA05FC07F0030726EA0C06AF402E
:10033000374307604E68012E05D0022E03D0112EE0
:1003400001D0122E0ED18668CF6826EA0C06AF4087
:10035000374387604668A6430C79C4F30014944081
:1003600034434460C6688C6826EA0C06AC403443CB
:10037000C4604C68E40065D5364C256845F480457A
:100380002560246822F0030504F480440094324C74
:100390002E19D6F8084895072F0F09FA07F5AC4330
:1003A0002E4DA84201D1002524E02D4DA84201D1B7
:1003B00001251FE02B4DA84201D102251AE02A4D4C
:1003C000A84201D1032515E0284DA84202D10425F9
:1003D00010E037E0264DA84201D105250AE0254D61
:1003E000A84201D1062505E0234DA84201D10725E9
:1003F00000E00825BD402543C6F80858DBF800405A
:100400005D464E689C43F60300D51C432C60DEF825
:10041000004075464E689C43B60300D51C432C60D3
:100420000B4D08352C684E689C43F60200D51C43E2
:100430002C60074D0C352C684E689C43B60200D5E5
:100440001C432C60521C102AFFF44EAFBDE8F88FFD
:10045000003C0140443802400030014000000240AE
:100460000004024000080240000C0240001002405C
:100470000014024000180240001C024042694A4039
:10048000426170470AB1816170470904FBE70000CF
:1004900001488068704700000400002070477047E2
:1004A00070B504460068456946682D490D4208D07C
:1004B000F10506D5216C41F0010121646FF48071D2
:1004C000416115F4813F09D0F00507D5206C40F05B
:1004D0000200206421686FF40070486115F4823FC7
:1004E00028D0F00526D594F83E30628D94F83D0072
:1004F000216B202B08D13AB921280ED029280CD005
:10050000282801D1212908D0206C40F00400206463
:1005100094F83E00102804D008E0204601F040FB8B
:1005200008E02068016841F40071016021686FF4FF
:100530008060486115F4843F09D0F00507D5206C30
:1005400040F00800206421686FF400604861206C6E
:10055000002804D02046BDE8704001F023B870BDEB
:10056000000101002DE9F05F02680446D2F818800E
:100570005569566890F83E007449DFF8D0A1DFF85D
:10058000CCB1DFF8CC918F1C0AF17E0A0BF13E0B47
:10059000102812D0402810D00D425BD0B00559D59C
:1005A000936920460021DB435B0700D50121926956
:1005B000D243120648D5828947E015F0011F05D0C5
:1005C000B00503D5204601F0BDFA10E05F48801D5C
:1005D000054205D0B00503D5606CC0B2106106E0DD
:1005E0000D4204D0B00502D5204601F031FA18EAD8
:1005F000090F14D015EA0A0F08D0700506D53D4240
:1006000006D12046BDE8F05F01F09EB93D421FD003
:10061000B0051DD52046BDE8F05F01F055B915EADB
:100620000B0F08D0700506D53D4206D12046BDE827
:10063000F05F01F0BCB83D420AD0B00508D52046B5
:10064000BDE8F05F01F054B8028B92B2FFF727FFCC
:10065000BDE8F09F3D480E30054206D0B00504D5F8
:100660002046BDE8F05F01F0DDBA18EA090F4FF04F
:10067000280134D015EA0A0F23D0700521D53D4258
:1006800021D194F83D302046628D002AE0D0426AA4
:10069000541C4462046812782261428D521E4285C5
:1006A000428D002AD4D1292BD2D10268536823F479
:1006B000806353602122026380F83D1000F049FA04
:1006C000C6E73D42C4D0B005C2D5608D0028BFD07A
:1006D000606A411C616221680078086131E015EAB6
:1006E0000B0F22D0700520D53D4220D194F83D302B
:1006F0002046648D002CABD01469426A551C4562BB
:100700001470428D521E4285428D002AA0D12A2BA0
:100710009ED10268536823F48063536022220263EF
:1007200080F83D1000F014FA92E73D4290D0B005F9
:100730008ED5608D00288BD01169606A421C626280
:100740000170608D401E608582E70000020001009C
:10075000040010007047000070B5040004D094F845
:100760003D00002510B106E0012070BD84F83C502A
:10077000204600F0C7F9242084F83D002068016875
:1007800021F00101016000F045FB33492268B0FB14
:10079000F1F15160314A6368934206D94FF4967380
:1007A00059434FF47A73B1FBF3F12368491C196282
:1007B000616891420BD84900B0FBF1F2C2F30B0221
:1007C000042A01D2042019E0B0FBF1F016E0A3687E
:1007D0009BB301EBC10202EB0112B0FBF2F242F457
:1007E0008042120530D04BB301EBC10202EB011184
:1007F000B0FBF1F040F4804040F400402168C86153
:10080000D4E90701084321680860D4E903100843CC
:1008100021688860D4E9050108432168C860206820
:10082000016841F0010101602564202084F83D0049
:10083000256384F83E50002070BD00E006E001EB27
:100840004102B0FBF2F2CCE70120D7E701EB410116
:10085000B0FBF1F0D0E7000040420F00A08601009D
:100860002DE9FF4F81B099468B4604464FF00108B1
:10087000FFF70EFE054694F83D0020287BD1192392
:1008800001224D492046009501F061FA002872D1FD
:1008900094F83C0001286ED0012084F83C002068C8
:1008A0000168C90703D1016841F0010101602068B6
:1008B000016821F400610160242084F83D000026D5
:1008C00026643E48E06220272068016841F4807178
:1008D00001604B4600224FF001112046009501F0C7
:1008E00036FA002858D121680BF0FE000861FFF7A6
:1008F000CFFD2168054648694969C0F3400094F876
:100900003D20C1F380214FF0A00A12E0B9F1000FA1
:1009100004D0FFF7BDFD411B494501D984F83DA036
:10092000216848694969C0F3400094F83D20C1F34B
:100930008021084301D1A02AE8D184F83D702068C5
:100940004169C943890717D4016841F40071016006
:1009500020684169806919230122174920460095C2
:1009600001F0F5F9C0B984F83D7084F83C600020CE
:1009700005B0BDE8F08F1DE0016841F40071016031
:1009800021686FF480604861192301220A492046DA
:10099000009501F0DCF908B10320E9E7414603982E
:1009A00008F1010881428FD384F83D7084F83C60DF
:1009B0000120DDE70220DBE7020010000000FFFF5E
:1009C00070477047704700002DE9F84F1F4690466A
:1009D0008A460446DDF82890FFF75AFD064694F84B
:1009E0003D0020287ED1192301224349204600964C
:1009F00001F0ADF900287DD194F83C00012879D0B0
:100A0000012084F83C0020680168C90703D101680F
:100A100041F0010101602068016821F4006101607A
:100A2000212084F83D00102084F83E000025256434
:100A3000C4F8248067853148E062608D20853346A4
:100A40004A465146204600F0F5FE28B1206C84F855
:100A50003C5004284CD00DE020684169806900902A
:100A600030E032464946204601F0E6F928B1206CD4
:100A7000042838D00320BDE8F88F606A411C616209
:100A8000216800780861608D401E6085208D401EC1
:100A900080B2208521684A69D24352070BD450B1F5
:100AA000606A421C626200780861608D401E608549
:100AB000208D401E208532464946204601F020F90F
:100AC0000028D4D1208D0028CBD154F83D0B0168EB
:100AD00041F400710160202004F81E09E577657774
:100AE0000020C8E706E02068016841F40071016059
:100AF0000120C0E70220BEE7020010000000FFFF57
:100B00007047704700B500680E4987B0884216D11B
:100B1000C020009012200190012002900320039039
:100B20000420049069460848FFF7D0FB0748016895
:100B300041F400110160006800F40010059007B056
:100B400000BD000000540040000402404038024054
:100B5000704770470248816802781144816070478D
:100B6000040000200B4810B5016841F400710160D9
:100B7000016841F480610160016841F480710160A5
:100B8000032000F097F8002000F006F800F024F8A9
:100B9000002010BD003C024070B50D4D04464FF4DE
:100BA0007A712878B1FBF0F00A490968B1FBF0F0DE
:100BB00000F00BFB48B9102C07D200222146501E32
:100BC00000F058F800206C6070BD012070BD00007E
:100BD00004000020100000201F4808B5016841F4FF
:100BE00080410160006800F4804000901A48001FB6
:100BF000016841F080510160006800F08050009071
:100C0000072000F057F8002211466FF00B0000F0AB
:100C100031F8002211466FF00A0000F02BF8002294
:100C200011466FF0090000F025F800221146501F10
:100C300000F020F800221146101F00F01BF80022DF
:100C40001146901E00F016F80022BDE8084011463B
:100C5000501E00F00FB800004438024000F01F02A0
:100C6000012191404009800000F1E020C0F800110E
:100C700070470000F0B40E4B1B680C46C3F3022310
:100C8000C3F10705042D00D90425191D072901D238
:100C9000002300E0DB1E012606FA05F1491E214073
:100CA00099409E40761E16403143F0BC01F098B941
:100CB0000CED00E0064900F0070208684FF6FF035C
:100CC000184040EA0220034A1043086070470000C1
:100CD0000CED00E00000FA052DE9F0470E46050096
:100CE00065D0DFF81481D8F80000F7B200F00F00EB
:100CF000B04207D288F80070D8F8000000F00F006A
:100D0000B04254D128683D4C810712D5400703D525
:100D1000206840F4E05020602878000703D5206860
:100D200040F4604020602068A96820F0F00008438B
:100D300020602878C0072DD030496868083901281C
:100D400012D0022813D0032811D00968890700297E
:100D50002DDA216821F0030101432160FFF798FBA0
:100D6000814641F2883A0EE009688903EFE7096895
:100D70008901ECE7FFF78CFBA0EB0901514502D993
:100D80000320BDE8F0872068696800F00C00B0EB34
:100D9000810FEFD1D8F80010404601F00F01B142A9
:100DA00007D90770006800F00F00B04201D00120A1
:100DB000E7E72878400705D52068E96820F4E05087
:100DC000084320602878000706D52068296920F4A8
:100DD000604040EAC100206000F02CF82168084A19
:100DE000C1F30311515CC840064908600020FFF7B9
:100DF000D3FE0020C5E70000003C02400838024056
:100E00003C230008100000200148006870470000E3
:100E1000100000200448054900680968044AC1F32D
:100E20008221515CC8407047100000200838024001
:100E30004C230008154810B5006810F00C02144847
:100E400013D04110042A0FD0082A0ED10F4C241FB2
:100E50002268236802F03F025B0207D52068C0F3D6
:100E60008810A0FB010106E0084610BD2168C1F30F
:100E70008811A1FB00010023FFF7A2F92168C1F34B
:100E80000141491C4900B0FBF1F010BD0838024097
:100E90000024F4002DE9F84F050076D02878DFF81B
:100EA000F8B2BE4CC00749D0DBF800105846C1F379
:100EB0008101012908D00068C0F3810002280AD10D
:100EC000201D0068400206D52068800336D568687A
:100ED0000028E2D032E06868B0F5803F10D0B0F56D
:100EE000A02F206810D020F480302060206820F4EB
:100EF000802020606868A0B1FFF7CAFA06460CE0BF
:100F0000206840F48030F4E740F480202060F7E768
:100F1000FFF7BEFA801B642873D820688003F7D5DA
:100F20000CE0FFF7B5FA064605E000BFFFF7B0FAA0
:100F3000801B6428F0D820688003F7D42878DFF875
:100F4000608280074FF000093ED5DBF8001058465C
:100F500011F00C0F09D00068C0F3810002280BD1FA
:100F60008D48001F0068400206D42068800715D510
:100F7000E868012809D111E0E868B8B10120C8F893
:100F80000000FFF785FA064605E002E1FFF780FA68
:100F9000801B0228C0D820688007F7D520682969FF
:100FA00020F0F80040EAC10020600DE0C8F8009091
:100FB000FFF76EFA064604E0FFF76AFA801B022884
:100FC0001FD820688007F7D42878000722D5724EF2
:100FD000744869696C3671B101210160FFF758FAF4
:100FE000074604E0FFF754FAC01B022809D830680E
:100FF0008007F7D50EE0C0F80090FFF749FA0746E2
:1010000005E083E0FFF744FAC01B02287ED8306871
:101010008007F7D42878400768D5DFF87CA100273F
:101020000AF1380ADAF80000C0000BD4DAF8001030
:1010300041F08051CAF80010DAF80000012700F0F2
:1010400080500090584E3068C00510D4306840F48D
:1010500080703060FFF71CFA009005E0FFF718FA87
:101060000099401A022851D83068C005F6D54A4E7A
:10107000A868683601280FD00528306810D020F005
:1010800001003060306820F004003060A868B8B11A
:10109000FFF7FEF900900FE0306840F00100F4E740
:1010A00040F004003060F7E7FFF7F2F90099411AC9
:1010B00041F28830814264D830688007F4D50EE070
:1010C000FFF7E6F9009007E0FFF7E2F90099411A0F
:1010D00041F28830814254D830688007F4D42FB16F
:1010E000DAF8001021F08051CAF80010A869C0B3E6
:1010F000DBF80010C1F3810102294AD002284846DA
:1011000007D0C8F86000FFF7C3F900E039E00546F2
:101110003AE04746C8F86000FFF7BAF9064604E02F
:10112000FFF7B6F9801B02282BD820688001F7D47E
:10113000D5E907010843A96A1C4A490802EB0141A5
:101140006A6A41EA8211084395F82C1040EA01616D
:101150001148001F016001203866FFF799F9054624
:1011600005E014E0FFF794F9401B022809D8206835
:101170008001F7D50BE000BFFFF78AF9401B02287A
:1011800002D90320BDE8F88F20688001F4D4002044
:10119000F8E70120F6E70000083802400038024076
:1011A00000004742800E4742007000400000FFFFF1
:1011B0004FF0E0210428086903D020F00400086102
:1011C000704740F00400FAE7704710B5401EB0F1D8
:1011D000807F01D3012010BD4FF0E02460610F211A
:1011E000601700F0FDFE0020A061072020610020B4
:1011F00010BD10B5FFF7E8FF10BD7047704730B560
:1012000090F83820012A20D0012280F838200223CB
:1012100080F8393003685C6824F070045C6003680F
:101220005C680D682C435C6003689C6824F0800453
:101230009C6003689C6849680C439C6080F8392076
:10124000002180F83810084630BD022030BD10B5AE
:10125000040003D094F8390010B107E0012010BD5C
:10126000002084F83800204600F00CF8022084F8B2
:101270003900211D206800F053FF012084F8390057
:10128000002010BD08B501680B48B1F1804F0BD0AC
:101290000A4A914207D1016841F0020101600068E9
:1012A00000F00200009008BD016841F001010160FA
:1012B000006800F00100F5E74038024000040040FB
:1012C0000168CA6842F00102CA600068016841F022
:1012D000010101600020704770B5044690F83800A5
:1012E000012817D0012584F83850022084F83900ED
:1012F0002068826822F0770222F47F4282600868C8
:10130000502837D00DDC202859D005DC88B31028B0
:1013100041D151E0022070BD302853D040283AD14D
:101320003FE060282ED070280BD0B0F5805F03D04E
:10133000B0F5005F2FD110E02068816821F007012F
:1013400015E0CB68D1E90121206800F049FF216850
:10135000886840F0770088601DE0CB68D1E9012102
:10136000206800F03DFF2068816841F48041816081
:1013700011E01EE0CA684968206800F043FF502170
:10138000206806E0CA684968206800F04CFF6021C8
:10139000206800F02FFF84F83950002084F83800CE
:1013A00070BDCA684968206800F02CFF40212068A1
:1013B000EFE700212068ECE710212068E9E7202111
:1013C0002068E6E730212068E3E7704770B50446FF
:1013D000006801694FF00005C943890715D4C16849
:1013E000C943890711D4E91E0161012020762068D4
:1013F00080698007204602D0FFF7E7FF04E000F095
:1014000098F8204600F096F8257620680169C943CF
:10141000490717D4C168C943490713D46FF00401C1
:101420000161022020762068806910F4407F204608
:1014300002D0FFF7CAFF04E000F07BF8204600F07E
:1014400079F8257620680169C943090716D4C1686F
:10145000C943090712D46FF0080101610420207606
:101460002068C0698007204602D0FFF7AEFF04E085
:1014700000F05FF8204600F05DF8257620680169ED
:10148000C943C90617D4C168C943C90613D46FF04C
:1014900010010161082020762068C06910F4407FA7
:1014A000204602D0FFF791FF04E000F042F820460A
:1014B00000F040F8257620680169C943C90708D1C2
:1014C000C168C943C90704D1891E0161204600F0E3
:1014D00032F820680169C943090609D4C168C943C3
:1014E000090605D46FF0800101612046FFF785FEF3
:1014F00020680169C943490609D4C168C94349063E
:1015000005D46FF040010161204600F015F8206815
:101510000169C94389060BD4C168C943890607D448
:101520006FF0200101612046BDE87040FFF766BE04
:1015300070BD7047704770477047FEE70148FEF77F
:10154000AFBF0000140000200148FFF70BB80000F7
:101550001400002010B5806B01680A6822F48062D4
:101560000A6000214185426B1165826B116590F81C
:101570003D302022602B80F83D2080F83E1007D0BF
:1015800001680A6822F001020A60FFF7E3F810BD63
:10159000016401680A6822F001020A60FEF77EFF1A
:1015A00010BD000070B590F83D10044600252026BF
:1015B000006829292DD02A292BD094F83D106029C4
:1015C00004D04168090501D484F83D60256384F89E
:1015D0003E50016821F400610160206841680905FE
:1015E00037D5416821F400614160606B90F8352087
:1015F0003349012A12D00165606BFEF748FE38B30B
:101600002068016821F00101016084F83D60606B91
:101610001CE02563282184F83D10DAE7A06B016502
:10162000A06BFEF734FE98B120684169C9434906B2
:1016300004D40169606A421C62620170206801681A
:1016400021F00101016084F83D60A06B016D8847C5
:101650000FE094F83D1060291DD04169C943490647
:1016600004D40169606A421C626201702046FFF77F
:1016700071F894F83D0028280CD1206C400709D55A
:101680001048E062256384F83D6084F83E502046AF
:10169000FFF796F970BD84F83D6025644169C94340
:1016A000490604D40169606A421C626201702068C4
:1016B000016821F0010101602046FEF7EFFED8E746
:1016C000551500080000FFFF01684A69D243520522
:1016D0000CD46FF480624A6104210164002140F857
:1016E000301F202242730173012070470020704791
:1016F00010B5C26A438D0168042B06D0438D032BBD
:1017000008D0438D022B19D00EE04A6822F4806283
:101710004A6008E04A6822F480624A6001680A6808
:1017200022F480620A6001680A69416A4B1C4362C4
:101730000A70418D491E4185002010BD022A2AD021
:10174000012A28D00A6842F400720A6001680A6916
:10175000416A4B1C43620A70418D491E41850168F4
:101760000A69416A4B1C43620A70418D491E4185DA
:1017700001684A6822F440724A60202180F83D10D6
:101780000021016390F83E2080F83E10402A0BD0E3
:10179000FFF717F9D0E70A6822F480620A6001684F
:1017A0000A6842F48072D0E7FFF7AAF9C4E710B5DF
:1017B00090F83D10222937D1418D032911D90168B4
:1017C0000A69416A4B1C43620A70418D491E41857A
:1017D000418D032928D10068416821F4806141606E
:1017E00022E0012900D0F9B901680A6822F4806278
:1017F0000A6001684A6822F4E0624A6001680A6986
:10180000416A4B1C43620A70418D491E418520216B
:1018100080F83D100021016390F83E2080F83E10D2
:10182000402A03D0FFF7CDF8002010BDFFF768F97C
:10183000FAE70000F8B50446C06A1E460D46174692
:10184000042807D0012805D010F5803F02D0206B76
:10185000122804D12068016841F4807101601346A8
:1018600000224FF001112046009600F070FAA0B956
:101870002069B0F5804F12D00620216800EAD5100B
:1018800040F0F000086133463A460E49204600F029
:101890008FFA38B1206C042811D00320F8BD05F070
:1018A000FE0000E0E8B221680861064933463A4686
:1018B000891F204600F07CFA0028EBD1F8BD0120FA
:1018C000F8BD00000800010010B5C26A90F83D1094
:1018D000212921D1418D49B1416A4A1C42620268E5
:1018E00009781161418D491E418515E020230021B1
:1018F000042A13D0082A11D012F5803F0ED00268B6
:10190000546824F4E06454601122026380F83E10AD
:1019100080F83D30FFF756F8002010BD026854688B
:1019200024F4E06454600268146844F400741460A1
:10193000016380F83D3090F83E2080F83E10402A48
:10194000E8D1FFF7DEF8E7E710B590F83D1090F822
:101950003E30C26A048D24B1212934D0402B30D0CE
:1019600074E02129FAD120230021042A13D0082A67
:1019700011D012F5803F0ED00268546824F4E06460
:1019800054601122026380F83E1080F83D3000BFA1
:10199000FFF718F85AE00268546824F4E0645460D1
:1019A0000268146844F400741460016380F83D30E8
:1019B00090F83E2080F83E10402AE9D1FFF7A1F8C8
:1019C00044E0222942D1418D21B190F83E104029B6
:1019D00006D032E00068416821F48061416035E062
:1019E000016D31B1016D012911D0016D022915D0B0
:1019F0002CE0C16C0129816C02D0C1F3072108E001
:101A00000268C9B21161016D891C01651EE0816C1B
:101A1000C9B202681161016D491CF6E790F83D10EA
:101A2000222904D090F83D10212906D00EE000684C
:101A3000016841F48071016008E0416A4A1C426219
:101A4000026809781161418D491E4185002010BD51
:101A500078B590F83E50C26A036B90F83D60002460
:101A60000168222E06D1066D0EB9402D02D0056DFB
:101A700025B107E048698869009058E00569B5F527
:101A8000404F08D0458D55B3458D012D0ED0428D68
:101A9000022A37D04DE04A698A6900920A6842F406
:101AA00080720A60016D491C016540E012F5803FBB
:101AB00009D0042A20D0082A1ED0122B1CD0C26ABA
:101AC000022A08D113E00A6822F480620A600168E1
:101AD0004A68120503D50A6822F480620AE04A695E
:101AE0008A6900920A6842F400720A601EE00A687D
:101AF00042F480620A6015E00A6822F480620A609B
:101B00000168ECE7C26A022A13D00A6822F48062F4
:101B10000A6001680A6842F400620A6001684A6863
:101B200012050AD401684A69896900910465002098
:101B300078BD0A6842F48062EFE74A6842F4805256
:101B40004A60EFE790F83E10402909D00169B1F5ED
:101B5000804F10D0016D99B1016D012915D01CE0A5
:101B6000016D19B9416C01F0FE0114E0416CC9B27C
:101B700041F001010FE090F83D102129F6D1F1E785
:101B8000416CF02201F4407103E0416CF12201F458
:101B9000407142EAD11100680161002070470000E5
:101BA0002DE9F04190F83D40C26A00231C4F2026E9
:101BB00001686FF48065042A01D0082A01D1282C1D
:101BC00005D0212C17D04D610020BDE8F081C762FF
:101BD0004A6822F4E0624A6001684D6101680A685F
:101BE00022F480620A60036380F83D6080F83E3032
:101BF000FEF7E6FEE8E7C7622122026380F83D6057
:101C000080F83E304A6822F4E0624A6001684D6123
:101C100001680A6822F480620A60FEF79AFFD3E73F
:101C20000000FFFF38B590F83D2001684B6823F4B1
:101C3000E0634B60036800215C6900941C6844F019
:101C400001041C6003681C6824F480641C60036841
:101C50005C6824050BD590F83D40222C2BD090F8E1
:101C60003D402A2C27D0446B246864684485448D09
:101C7000E4B15C69E443640707D41C69436A5D1CF2
:101C800045621C70438D5B1E438503685C69E443B9
:101C9000640607D41C69436A5D1C45621C70438D51
:101CA0005B1E4385036C43F004030364036C23B1A0
:101CB000FFF778FC1FE0846BD6E72023282A09D0A1
:101CC0002A2A07D0292A05D0046B222C0CD0222ADC
:101CD0000AD010E0094AC262016380F83D3080F802
:101CE0003E10FEF76DFE06E0016380F83D3080F89F
:101CF0003E10FEF72DFF002038BD00000000FFFF62
:101D000070B516460D4604461AE02046FFF7DCFC87
:101D100008B1012070BD681C12D025B1FEF7B8FBD8
:101D2000801BA8420CD954F8400F40F0200044F822
:101D3000100900202060202161732073032070BDF2
:101D400020684069C0434007DFD4002070BD2DE902
:101D5000F0471E4690460D460446C1F30747DDF89E
:101D6000209012E0701C10D02EB1FEF791FBA0EB7A
:101D70000900B04209D9002044F8300F20216173D6
:101D8000A07320730320BDE8F0872068012F0AD0DC
:101D9000806925EA00000004000C06D000214145BE
:101DA000E0D00020EFE74069F3E70121F7E700000A
:101DB0002DE9F0479A4691460D46044600264FF01D
:101DC0002008C1F307472AE020684069C043400566
:101DD00012D42068016841F40071016021686FF439
:101DE0008060486104202064266384F83D8084F884
:101DF0003C600120BDE8F087B9F1FF3F0FD0B9F199
:101E0000000F05D0FEF744FBA0EB0A01494506D9B7
:101E100044F8306F84F80D8026730320EAE72068C9
:101E2000012F07D0D0F8180025EA00000004000CAC
:101E3000E0D0C9E74069F7E770B516460D4604469D
:101E40001AE02046FFF740FC08B1012070BD681C75
:101E500012D025B1FEF71CFB801BA8420CD954F808
:101E6000400F40F0200044F810090020206020219D
:101E700061732073032070BD20684069C043000671
:101E8000DFD4002070BD000030B5174887B00024B3
:101E9000016841F001010160016801F00101059153
:101EA000016841F008010160016801F00801059135
:101EB000016841F00201016000680C4D00F0020071
:101EC00005900120CDE90005694602940848FEF717
:101ED000FDF94FF47040CDE90005694602940548CC
:101EE000FEF7F4F907B030BD3038024000001110A1
:101EF00000000240000C02400C4810B50A49016085
:101F00000B4941600021FA22C0E902124FF48042DD
:101F1000C0E904218161C1610162FEF71DFC002856
:101F200000D0FEE710BD0000005400401400002067
:101F3000A086010010B5134886B04FF080410160C3
:101F400048F69F410024C0E901144FF4FA61C0E94A
:101F50000314FFF77CF900B1FEE74FF480500090C6
:101F600069460848FFF7B8F900B1FEE7049404A9F0
:101F700004480594FFF743F9002800D0FEE706B0B7
:101F800010BD00006800002010B5134886B011494C
:101F9000016048F69F410024C0E901144FF4FA6142
:101FA000C0E90314FFF753F900B1FEE74FF4805086
:101FB000009069460848FFF78FF900B1FEE70494E6
:101FC00004A905480594FFF71AF9002800D0FEE798
:101FD00006B010BD00040040A4000020FEE77047DA
:101FE0000907090E002806DA00F00F0000F1E020D2
:101FF00080F8141D704700F1E02080F8001470474D
:102000007047704710B5FEF7A5FDBDE81040FFF71B
:10201000F0B8000030B5254893B00025016841F0C4
:1020200080510160006800F08050119020480168E4
:1020300041F4804101600068022400F48040119066
:102040000120039010200490009406940820CDE90C
:1020500007504820CDE9090407200B906846FEF799
:1020600019FF00B1FEE70CA90F2081E831004FF401
:1020700080500F904FF4A050109002210CA8FEF752
:102080002BFE00B1FEE7FEF7BFFE4FF47A71B0FB06
:10209000F1F0FFF79AF80420FFF78AF800221146C2
:1020A000501EFEF7E7FD13B030BD0000403802407F
:1020B000007000401048016841F4700101600F4851
:1020C000016841F0010101600C4A002108321160F1
:1020D00002680B4B1A400260031D0A4A1A6002682C
:1020E00022F48022026005480C3001600249580643
:1020F000803908607047000088ED00E00038024039
:10210000FFFFF6FE103000240148FFF75FB9000022
:10211000680000200148FFF759B90000A400002022
:10212000F0B50268234B244D244E254F254C4FF02B
:10213000804C984209D0604507D0A84205D0B042F3
:1021400003D0B84201D0A04204D122F0700E4A68F8
:1021500042EA0E0298421BD0604519D0A84217D01F
:10216000B04215D0B84213D0A04211D0164DA842AB
:102170000ED0164DA8420BD0154DA84208D0154DD3
:10218000A84205D0144DA84202D0144DA84203D154
:1021900022F44075CA682A4302608A68C2620A68EB
:1021A0008262984201D0A04201D1096901630121F4
:1021B0004161F0BD00000140000400400008004003
:1021C000000C004000040140004001400044014078
:1021D0000048014000180040001C00400020004062
:1021E00010B5846842EA032224F47F440A43224360
:1021F000826010BD826822F070020A4342F007013B
:102200008160704710B5036A046A24F00104046217
:10221000846924F0F00444EA021423F00A020A4319
:102220008461026210BD10B5036A23F010030362DB
:102230008369046A23F4704343EA023224F0A00362
:1022400043EA01118261016210BDFEE702E008C8A5
:10225000121F08C1002AFAD170477047002001E020
:1022600001C1121F002AFBD17047000008B5FEF71C
:1022700079FCFFF7CFFEFFF707FEFFF73DFEFFF704
:1022800059FEFFF781FE002211462020FEF7F2FCE6
:102290002020FEF7E3FC002211461F20FEF7EAFC97
:1022A0001F20FEF7DBFC002211461D20FEF7E2FC9A
:1022B0001D20FEF7D3FC002211461C20FEF7DAFC9D
:1022C0001C20FEF7CBFC002211460620FEF7D2FCB4
:1022D0000620FEF7C3FC1648FEF7F2FF14483C3018
:1022E000FEF7EEFF134C0A254FF40046A7141048E2
:1022F0000A230122FA215438FEF7B2FA4FF0010204
:1023000020B139462046FEF7BDF8F0E731462046B9
:10231000FEF7B8F806480123074AFA215438009519
:10232000FEF752FB39462046FEF7A8F8DFE700002B
:1023300068000020000C02400000002000000000A7
:102340000000000001020304060708090000000065
:1023500001020304742300080000002014000000A0
:102360004C2200088823000814000020CC04000040
:102370005C2200080F0000000100000010000000B7
:08238000000000000024F4003D
:040000050800018965
:00000001FF
