:020000040800F2
:10000000E80400209D01000827130008D71100080C
:10001000251300088502000867160008000000008C
:100020000000000000000000000000001F14000895
:10003000870200080000000049130008211400088E
:10004000B7010008B7010008B7010008B7010008B0
:10005000B7010008B701000889020008B7010008CD
:10006000B7010008B7010008B7010008B701000890
:10007000B7010008B7010008B7010008B701000880
:10008000B7010008B7010008B7010008B701000870
:10009000B7010008B7010008B7010008B701000860
:1000A000B7010008B7010008B7010008B701000850
:1000B0002515000831150008B7010008B701000830
:1000C000B7010008B7010008B70100084D13000888
:1000D000B7010008B7010008B7010008B701000820
:1000E000B7010008B7010008B7010008B701000810
:1000F000B7010008B7010008B7010008B701000800
:10010000B7010008B7010008B7010008B7010008EF
:10011000B7010008B7010008B7010008B7010008DF
:10012000B7010008B7010008B7010008B7010008CF
:10013000B7010008B7010008B7010008B7010008BF
:10014000B7010008B7010008B7010008B7010008AF
:10015000B7010008B7010008B7010008B70100089F
:10016000B7010008B7010008B7010008B70100088F
:10017000B7010008B7010008B7010008000000003F
:10018000B7010008B7010008DFF80CD000F068F8EC
:100190000048004789160008E80400200648804708
:1001A00006480047FEE7FEE7FEE7FEE7FEE7FEE75C
:1001B000FEE7FEE7FEE7FEE7D1140008890100082C
:1001C0002DE9F05F0546002092469B46884606468C
:1001D000814640241BE0284641464746224600F01F
:1001E0002FF853465A46C01A914110D3114618466B
:1001F000224600F016F82D1A67EB01084F462246FA
:100200000120002100F00DF817EB00094E41201EDF
:10021000A4F10104DFDC484631462A464346BDE8E6
:10022000F09F202A04DB203A00FA02F100207047F8
:100230009140C2F1200320FA03F319439040704724
:10024000202A04DB203A21FA02F00021704721FA2B
:1002500002F3D040C2F12002914008431946704792
:10026000064C074D06E0E06840F0010394E8070003
:1002700098471034AC42F6D3FFF78AFF3C170008CA
:100280005C170008FEE77047012000F013B890F8F3
:100290003510022903D080214165012070470521D6
:1002A00080F835100068016821F00101016000202C
:1002B00070477047044910B50A68024202D00860CE
:1002C000FFF7F7FF10BD0000143C01402DE9F84F87
:1002D000DFF87CB100224FF001084FF0030A4FF025
:1002E0000F090BF1040E00BF0B6808FA02F423405B
:1002F000A3426ED14D68022D01D0122D0ED1D5082A
:1003000000EB850CDCF820505607F70E09FA07F6CB
:10031000B5430E69BE402E43CCF8206006685500F8
:100320000F790AFA05FC07F0030726EA0C06AF402E
:10033000374307604E68012E05D0022E03D0112EE0
:1003400001D0122E0ED18668CF6826EA0C06AF4087
:10035000374387604668A6430C79C4F30014944081
:1003600034434460C6688C6826EA0C06AC403443CB
:10037000C4604C68E40065D5364C256845F480457A
:100380002560246822F0030504F480440094324C74
:100390002E19D6F8084895072F0F09FA07F5AC4330
:1003A0002E4DA84201D1002524E02D4DA84201D1B7
:1003B00001251FE02B4DA84201D102251AE02A4D4C
:1003C000A84201D1032515E0284DA84202D10425F9
:1003D00010E037E0264DA84201D105250AE0254D61
:1003E000A84201D1062505E0234DA84201D10725E9
:1003F00000E00825BD402543C6F80858DBF800405A
:100400005D464E689C43F60300D51C432C60DEF825
:10041000004075464E689C43B60300D51C432C60D3
:100420000B4D08352C684E689C43F60200D51C43E2
:100430002C60074D0C352C684E689C43B60200D5E5
:100440001C432C60521C102AFFF44EAFBDE8F88FFD
:10045000003C0140443802400030014000000240AE
:100460000004024000080240000C0240001002405C
:100470000014024000180240001C02400AB18161D1
:1004800070470904FBE700000148806870470000DE
:10049000040000200248816802781144816070479E
:1004A000040000200B4810B5016841F400710160A0
:1004B000016841F480610160016841F4807101606C
:1004C000032000F097F8002000F006F800F024F870
:1004D000002010BD003C024070B50D4D04464FF4A5
:1004E0007A712878B1FBF0F00A490968B1FBF0F0A5
:1004F00000F0B9FC48B9102C07D200222146501E4A
:1005000000F058F800206C6070BD012070BD000044
:1005100004000020100000201F4808B5016841F4C5
:1005200080410160006800F4804000901A48001F7C
:10053000016841F080510160006800F08050009037
:10054000072000F057F8002211466FF00B0000F072
:1005500031F8002211466FF00A0000F02BF800225B
:1005600011466FF0090000F025F800221146501FD7
:1005700000F020F800221146101F00F01BF80022A6
:100580001146901E00F016F80022BDE80840114602
:10059000501E00F00FB800004438024000F01F0267
:1005A000012191404009800000F1E020C0F80011D5
:1005B00070470000F0B40E4B1B680C46C3F30223D7
:1005C000C3F10705042D00D90425191D072901D2FF
:1005D000002300E0DB1E012606FA05F1491E21403A
:1005E00099409E40761E16403143F0BC00F09CBE00
:1005F0000CED00E0064900F0070208684FF6FF0323
:10060000184040EA0220034A104308607047000087
:100610000CED00E00000FA052DE9F0470E4605005C
:1006200065D0DFF81481D8F80000F7B200F00F00B1
:10063000B04207D288F80070D8F8000000F00F0030
:10064000B04254D128683D4C810712D5400703D5EC
:10065000206840F4E05020602878000703D5206827
:1006600040F4604020602068A96820F0F000084352
:1006700020602878C0072DD03049686808390128E3
:1006800012D0022813D0032811D009688907002945
:100690002DDA216821F0030101432160FFF7F4FE08
:1006A000814641F2883A0EE009688903EFE709685C
:1006B0008901ECE7FFF7E8FEA0EB0901514502D9FB
:1006C0000320BDE8F0872068696800F00C00B0EBFB
:1006D000810FEFD1D8F80010404601F00F01B14270
:1006E00007D90770006800F00F00B04201D0012068
:1006F000E7E72878400705D52068E96820F4E0504E
:10070000084320602878000706D52068296920F46E
:10071000604040EAC100206000F01CF82168084AEF
:10072000C1F30311515CC840064908600020FFF77F
:10073000D3FE0020C5E70000003C0240083802401C
:100740002C170008100000200148006870470000C6
:1007500010000020154810B5006810F00C02144875
:1007600013D04110042A0FD0082A0ED10F4C241F99
:100770002268236802F03F025B0207D52068C0F3BD
:100780008810A0FB010106E0084610BD2168C1F3F6
:100790008811A1FB00010023FFF712FD2168C1F3BE
:1007A0000141491C4900B0FBF1F010BD083802407E
:1007B0000024F4002DE9F84F050076D02878DFF802
:1007C000F8B2BE4CC00749D0DBF800105846C1F360
:1007D0008101012908D00068C0F3810002280AD1F4
:1007E000201D0068400206D52068800336D5686861
:1007F0000028E2D032E06868B0F5803F10D0B0F554
:10080000A02F206810D020F480302060206820F4D1
:10081000802020606868A0B1FFF736FE06460CE035
:10082000206840F48030F4E740F480202060F7E74F
:10083000FFF72AFE801B642873D820688003F7D551
:100840000CE0FFF721FE064605E000BFFFF71CFEA7
:10085000801B6428F0D820688003F7D42878DFF85C
:10086000608280074FF000093ED5DBF80010584643
:1008700011F00C0F09D00068C0F3810002280BD1E1
:100880008D48001F0068400206D42068800715D5F7
:10089000E868012809D111E0E868B8B10120C8F87A
:1008A0000000FFF7F1FD064605E002E1FFF7ECFD71
:1008B000801B0228C0D820688007F7D520682969E6
:1008C00020F0F80040EAC10020600DE0C8F8009078
:1008D000FFF7DAFD064604E0FFF7D6FD801B02288D
:1008E0001FD820688007F7D42878000722D5724ED9
:1008F000744869696C3671B101210160FFF7C4FD6C
:10090000074604E0FFF7C0FDC01B022809D8306885
:100910008007F7D50EE0C0F80090FFF7B5FD074659
:1009200005E083E0FFF7B0FDC01B02287ED83068E9
:100930008007F7D42878400768D5DFF87CA1002726
:100940000AF1380ADAF80000C0000BD4DAF8001017
:1009500041F08051CAF80010DAF80000012700F0D9
:1009600080500090584E3068C00510D4306840F474
:1009700080703060FFF788FD009005E0FFF784FD90
:100980000099401A022851D83068C005F6D54A4E61
:10099000A868683601280FD00528306810D020F0EC
:1009A00001003060306820F004003060A868B8B101
:1009B000FFF76AFD00900FE0306840F00100F4E7B7
:1009C00040F004003060F7E7FFF75EFD0099411A40
:1009D00041F28830814264D830688007F4D50EE057
:1009E000FFF752FD009007E0FFF74EFD0099411A16
:1009F00041F28830814254D830688007F4D42FB156
:100A0000DAF8001021F08051CAF80010A869C0B3CC
:100A1000DBF80010C1F3810102294AD002284846C0
:100A200007D0C8F86000FFF72FFD00E039E0054669
:100A30003AE04746C8F86000FFF726FD064604E0A6
:100A4000FFF722FD801B02282BD820688001F7D4F5
:100A5000D5E907010843A96A1C4A490802EB01418C
:100A60006A6A41EA8211084395F82C1040EA016154
:100A70001148001F016001203866FFF705FD05469B
:100A800005E014E0FFF700FD401B022809D82068AC
:100A90008001F7D50BE000BFFFF7F6FC401B0228F2
:100AA00002D90320BDE8F88F20688001F4D400202B
:100AB000F8E70120F6E7000008380240003802405D
:100AC00000004742800E4742007000400000FFFFD8
:100AD0007047000038B504460068426881684B06DC
:100AE00005D4CB0703D0530601D5216C04E08B0756
:100AF00007D5130605D5616C01B02046BDE830402E
:100B0000084711F4B07F48D0930646D54B060AD566
:100B100094F85130032B3DD0636D43F004036365BB
:100B2000C368836800938B0609D5636D43F00103A6
:100B3000636583680093036823F040030360C8057E
:100B400006D5606D40F00800606520688068009000
:100B5000606D002821D02068416821F0E0014160EB
:100B6000012084F85100900718D02068416821F0D6
:100B7000030141600B4DE06C18B10565E06CFFF7B7
:100B800086FBA06C002808D00565A06CBDE8384045
:100B9000FFF77DBBC1688068009038BD2046FFF735
:100BA00097FF38BD7913000870B5040005D0002503
:100BB000A56294F8510010B106E0012070BD84F8E0
:100BC0005050204600F030F8022084F85100206890
:100BD000016821F040010160D4E901010843D4E932
:100BE00003121143084361690843218B01F400712A
:100BF0000843E1690843216A0843A16A0843216860
:100C00000860A069042101EA1040616A0843216874
:100C100048602068C16921F40061C16165650120F7
:100C200084F85100002070BD00B500680E4987B0FF
:100C3000884216D10D480021026842F480520260B9
:100C4000006800F480500590F02000900220CDE96B
:100C50000101032003900520049069460448FFF732
:100C600035FB07B000BD00000030014044380240B1
:100C7000000002402DE9F84F044690F8500000268D
:100C80000A9F9A4693460D464FF0010801280ED060
:100C9000012084F85000FFF7F7FB814694F85100DB
:100CA000616801280CD0B1F5827F07D102E00220F3
:100CB000BDE8F88FA16809B9042801D00226BDE07B
:100CC00055B1BBF1000F07D0BAF1000F04D094F872
:100CD0005100012802D004E00126AFE0052084F88D
:100CE000510000206065C4F838B0A4F83EA0A4F814
:100CF0003CA02563A4F836A0A4F834A02064606466
:100D000020680168490603D4016841F04001016090
:100D1000E068B0F5006F606804D0E8B3E08E0128A9
:100D20003BD06AE010B1E08E01282ED1216835F861
:100D3000020BC860E08E401EE08626E0B8F1000F8E
:100D40000DD0E08E58B120688168890707D535F845
:100D5000021BC160E08E401EE0864FF00008E08F6D
:100D600058B120688168C90707D0C0682BF8020B0A
:100D7000E08F401EE0874FF00108781C05D0FFF798
:100D800083FBA0EB0900B84246D2E08E0028D5D103
:100D9000E08F0028D2D136E0FFE7216815F8010B7B
:100DA0000873E08E401EE08627E000BFB8F1000F18
:100DB0000DD0E08E58B120688168890707D515F8F5
:100DC000011B0173E08E401EE0864FF00008E08FAB
:100DD00058B120688168C90707D0C0680BF8010BBB
:100DE000E08F401EE0874FF00108781C05D0FFF728
:100DF0004BFBA0EB0900B8420ED2E08E0028D5D103
:100E0000E08F0028D2D13B46012202212046CDF8B6
:100E1000009000F0B9FA08B103260FE04A463946BF
:100E2000204600F099FA18B101262020606505E0FF
:100E3000A06818B92068C16880680090012084F813
:100E40005100002084F85000304631E74FF0E02197
:100E50000428086903D020F004000861704740F0BE
:100E60000400FAE7704710B5401EB0F1807F01D34F
:100E7000012010BD4FF0E02460610F21601700F0E9
:100E800053FA0020A06107202061002010BD10B59A
:100E9000FFF7E8FF10BD7047704730B590F8382075
:100EA000012A20D0012280F83820022380F839302E
:100EB00003685C6824F070045C6003685C680D681B
:100EC0002C435C6003689C6824F080049C60036889
:100ED0009C6849680C439C6080F83920002180F8A8
:100EE0003810084630BD022030BD10B5040003D0D4
:100EF00094F8390010B107E0012010BD002084F8FB
:100F00003800204600F00CF8022084F83900211D3A
:100F1000206800F013FB012084F83900002010BD88
:100F200008B501680B48B1F1804F0BD00A4A9142D5
:100F300007D1016841F002010160006800F0020081
:100F4000009008BD016841F001010160006800F0F7
:100F50000100F5E740380240000400400168CA681B
:100F600042F00102CA600068016841F001010160BD
:100F70000020704770B5044690F83800012817D05B
:100F8000012584F83850022084F8390020688268EE
:100F900022F0770222F47F4282600868502837D01E
:100FA0000DDC202859D005DC88B3102841D151E050
:100FB000022070BD302853D040283AD13FE060284D
:100FC0002ED070280BD0B0F5805F03D0B0F5005F55
:100FD0002FD110E02068816821F0070115E0CB686F
:100FE000D1E90121206800F009FB2168886840F000
:100FF000770088601DE0CB68D1E90121206800F00E
:10100000FDFA2068816841F48041816011E01EE0B2
:10101000CA684968206800F003FB5021206806E098
:10102000CA684968206800F00CFB6021206800F065
:10103000EFFA84F83950002084F8380070BDCA688F
:101040004968206800F0ECFA40212068EFE70021B1
:101050002068ECE710212068E9E720212068E6E716
:1010600030212068E3E7704770B5044600680169E5
:101070004FF00005C943890715D4C168C9438907E2
:1010800011D4E91E01610120207620688069800763
:10109000204602D0FFF7E7FF04E000F098F8204672
:1010A00000F096F8257620680169C943490717D4EE
:1010B000C168C943490713D46FF0040101610220DC
:1010C00020762068806910F4407F204602D0FFF728
:1010D000CAFF04E000F07BF8204600F079F825769E
:1010E00020680169C943090716D4C168C9430907C3
:1010F00012D46FF008010161042020762068C069D5
:101100008007204602D0FFF7AEFF04E000F05FF852
:10111000204600F05DF8257620680169C943C906BC
:1011200017D4C168C943C90613D46FF01001016117
:10113000082020762068C06910F4407F204602D045
:10114000FFF791FF04E000F042F8204600F040F87D
:10115000257620680169C943C90708D1C168C94318
:10116000C90704D1891E0161204600F032F82068C9
:101170000169C943090609D4C168C943090605D4F0
:101180006FF0800101612046FFF785FE206801694C
:10119000C943490609D4C168C943490605D46FF05B
:1011A00040010161204600F015F820680169C9433B
:1011B00089060BD4C168C943890607D46FF02001A2
:1011C00001612046BDE87040FFF766BE70BD704704
:1011D000704770477047FEE7F0B5174887B00024A6
:1011E000016841F001010160016801F00101059110
:1011F000016841F0080101600068104F00F008002C
:101200004FF470460590224631463846FFF736F9CE
:1012100001250B480095CDE9010469460948FFF70F
:1012200055F80096CDE90154694638460394FFF716
:101230004DF807B0F0BD000030380240000C02400D
:1012400000001110000002400B4810B50949016070
:10125000002141608160C160016141618161016281
:10126000416281620A21C162FFF79EFC002800D022
:10127000FEE710BD003001401400002010B51348F7
:1012800086B04FF08041016048F69F410024C0E9DC
:1012900001144FF4FA61C0E90314FFF726FE00B110
:1012A000FEE74FF48050009069460848FFF762FE61
:1012B00000B1FEE7049404A904480594FFF7EDFD8E
:1012C000002800D0FEE706B010BD00006C00002032
:1012D00010B5134886B01149016048F69F410024BB
:1012E000C0E901144FF4FA61C0E90314FFF7FDFDF2
:1012F00000B1FEE74FF48050009069460848FFF7C0
:1013000039FE00B1FEE7049404A905480594FFF7EF
:10131000C4FD002800D0FEE706B010BD0004004068
:10132000A8000020FEE770470907090E002806DA2A
:1013300000F00F0000F1E02080F8141D704700F16C
:10134000E02080F800147047704700000148FFF764
:10135000C1BB00001400002038B50B4600920446C3
:101360000022802100F010F8002804D0606D40F0C9
:1013700020006065032038BD10B5806B0021C18757
:10138000C186FFF7A5FB10BD2DE9F0411D461746AC
:101390000E460446DDF8188035E0681C33D02DB1C8
:1013A000FFF772F8A0EB0800A8422CD32068416830
:1013B00021F0E00141606068B0F5827F0BD1A06848
:1013C000B0F5004F02D0B0F5806F04D120680168FD
:1013D00021F040010160A06AB0F5005F0AD12068E9
:1013E00001684DF6FF72114001602068016841F408
:1013F00000510160012084F85100002084F8500061
:101400000320BDE8F0812068806836EA000004D03F
:101410000020B842C1D10020F3E70120F9E770476E
:1014200010B5FFF737F8BDE81040FFF730BD0000FA
:1014300030B5254893B00025016841F08051016026
:10144000006800F0805011902048016841F480410C
:1014500001600068022400F4804011900120039094
:1014600010200490009406940820CDE907504820ED
:10147000CDE9090407200B906846FFF79BF900B1FE
:10148000FEE70CA90F2081E831004FF480500F9047
:101490004FF4A050109002210CA8FFF7BDF800B146
:1014A000FEE7FFF751F94FF47A71B0FBF1F0FFF767
:1014B000DAFC0420FFF7CAFC00221146501EFFF799
:1014C00079F813B030BD0000403802400070004091
:1014D0001048016841F4700101600F48016841F053
:1014E000010101600C4A00210832116002680B4BB7
:1014F0001A400260031D0A4A1A60026822F4802220
:10150000026005480C3001600249580680390860C5
:101510007047000088ED00E000380240FFFFF6FE53
:10152000103000240148FFF79FBD00006C00002030
:101530000148FFF799BD0000A8000020F0B502683F
:10154000234B244D244E254F254C4FF0804C984280
:1015500009D0604507D0A84205D0B04203D0B842B8
:1015600001D0A04204D122F0700E4A6842EA0E0275
:1015700098421BD0604519D0A84217D0B04215D070
:10158000B84213D0A04211D0164DA8420ED0164D2D
:10159000A8420BD0154DA84208D0154DA84205D041
:1015A000144DA84202D0144DA84203D122F4407534
:1015B000CA682A4302608A68C2620A6882629842E4
:1015C00001D0A04201D10969016301214161F0BD4F
:1015D000000001400004004000080040000C0040F2
:1015E0000004014000400140004401400048014027
:1015F00000180040001C00400020004010B5846826
:1016000042EA032224F47F440A432243826010BD4D
:10161000826822F070020A4342F00701816070473D
:1016200010B5036A046A24F001040462846924F09A
:10163000F00444EA021423F00A020A4384610262BD
:1016400010BD10B5036A23F0100303628369046AB6
:1016500023F4704343EA023224F0A00343EA011169
:101660008261016210BDFEE702E008C8121F08C1D6
:10167000002AFAD170477047002001E001C1121F13
:10168000002AFBD17047000008B5FEF70BFFFFF7FB
:10169000CFFEFFF7A1FDFFF7F1FDFFF7D5FDFFF747
:1016A00017FE002211460620FEF784FF0620FEF7F3
:1016B00075FF002211461C20FEF77CFF1C20FEF760
:1016C0006DFF002211461D20FEF774FF1D20FEF75E
:1016D00065FF002211462320FEF76CFF2320FEF752
:1016E0005DFF0F48FFF73AFC0D483C30FFF736FC32
:1016F0000C4D0720002628700B4C6E70771E094A8F
:101700000748521C0123511E58380097FFF7B2FAC0
:10171000206826602068697840EA01302060EEE7A2
:101720006C00002000000020140C024000000000AB
:101730000000000001020304060708095C17000806
:101740000000002014000000681600087017000850
:1017500014000020D40400007816000800000000E7
:101760000100000010000000000000000024F40050
:040000050800018965
:00000001FF
